{
  "contractName": "Healthcare",
  "abi": [
    {
      "anonymous": false,
      "inputs": [
        {
          "indexed": true,
          "internalType": "uint256",
          "name": "_ehrId",
          "type": "uint256"
        }
      ],
      "name": "ehrCreated",
      "type": "event"
    },
    {
      "anonymous": false,
      "inputs": [
        {
          "indexed": true,
          "internalType": "uint256",
          "name": "_userId",
          "type": "uint256"
        }
      ],
      "name": "userCreated",
      "type": "event"
    },
    {
      "inputs": [],
      "name": "ehrCount",
      "outputs": [
        {
          "internalType": "uint256",
          "name": "",
          "type": "uint256"
        }
      ],
      "stateMutability": "view",
      "type": "function",
      "constant": true
    },
    {
      "inputs": [
        {
          "internalType": "uint256",
          "name": "",
          "type": "uint256"
        }
      ],
      "name": "ehrList",
      "outputs": [
        {
          "internalType": "string",
          "name": "username",
          "type": "string"
        },
        {
          "internalType": "string",
          "name": "doctorname",
          "type": "string"
        },
        {
          "internalType": "string",
          "name": "disease_details",
          "type": "string"
        },
        {
          "internalType": "string",
          "name": "report",
          "type": "string"
        },
        {
          "internalType": "string",
          "name": "prescription",
          "type": "string"
        },
        {
          "internalType": "string",
          "name": "ehr_date",
          "type": "string"
        }
      ],
      "stateMutability": "view",
      "type": "function",
      "constant": true
    },
    {
      "inputs": [],
      "name": "userCount",
      "outputs": [
        {
          "internalType": "uint256",
          "name": "",
          "type": "uint256"
        }
      ],
      "stateMutability": "view",
      "type": "function",
      "constant": true
    },
    {
      "inputs": [
        {
          "internalType": "uint256",
          "name": "",
          "type": "uint256"
        }
      ],
      "name": "userList",
      "outputs": [
        {
          "internalType": "string",
          "name": "username",
          "type": "string"
        },
        {
          "internalType": "string",
          "name": "password",
          "type": "string"
        },
        {
          "internalType": "string",
          "name": "phone",
          "type": "string"
        },
        {
          "internalType": "string",
          "name": "email",
          "type": "string"
        },
        {
          "internalType": "string",
          "name": "home_address",
          "type": "string"
        },
        {
          "internalType": "string",
          "name": "desc",
          "type": "string"
        },
        {
          "internalType": "string",
          "name": "usertype",
          "type": "string"
        }
      ],
      "stateMutability": "view",
      "type": "function",
      "constant": true
    },
    {
      "inputs": [
        {
          "internalType": "string",
          "name": "uname",
          "type": "string"
        },
        {
          "internalType": "string",
          "name": "pass",
          "type": "string"
        },
        {
          "internalType": "string",
          "name": "phone",
          "type": "string"
        },
        {
          "internalType": "string",
          "name": "emailid",
          "type": "string"
        },
        {
          "internalType": "string",
          "name": "homes_address",
          "type": "string"
        },
        {
          "internalType": "string",
          "name": "desc",
          "type": "string"
        },
        {
          "internalType": "string",
          "name": "utype",
          "type": "string"
        }
      ],
      "name": "saveUser",
      "outputs": [],
      "stateMutability": "nonpayable",
      "type": "function"
    },
    {
      "inputs": [],
      "name": "getUserCount",
      "outputs": [
        {
          "internalType": "uint256",
          "name": "",
          "type": "uint256"
        }
      ],
      "stateMutability": "view",
      "type": "function",
      "constant": true
    },
    {
      "inputs": [
        {
          "internalType": "string",
          "name": "uname",
          "type": "string"
        },
        {
          "internalType": "string",
          "name": "doctor",
          "type": "string"
        },
        {
          "internalType": "string",
          "name": "disease",
          "type": "string"
        },
        {
          "internalType": "string",
          "name": "report",
          "type": "string"
        },
        {
          "internalType": "string",
          "name": "pres",
          "type": "string"
        },
        {
          "internalType": "string",
          "name": "edate",
          "type": "string"
        }
      ],
      "name": "saveEhr",
      "outputs": [],
      "stateMutability": "nonpayable",
      "type": "function"
    },
    {
      "inputs": [
        {
          "internalType": "uint256",
          "name": "i",
          "type": "uint256"
        },
        {
          "internalType": "string",
          "name": "pres",
          "type": "string"
        }
      ],
      "name": "updatePrescription",
      "outputs": [],
      "stateMutability": "nonpayable",
      "type": "function"
    },
    {
      "inputs": [],
      "name": "getEhrCount",
      "outputs": [
        {
          "internalType": "uint256",
          "name": "",
          "type": "uint256"
        }
      ],
      "stateMutability": "view",
      "type": "function",
      "constant": true
    },
    {
      "inputs": [
        {
          "internalType": "uint256",
          "name": "i",
          "type": "uint256"
        }
      ],
      "name": "getUsername",
      "outputs": [
        {
          "internalType": "string",
          "name": "",
          "type": "string"
        }
      ],
      "stateMutability": "view",
      "type": "function",
      "constant": true
    },
    {
      "inputs": [
        {
          "internalType": "uint256",
          "name": "i",
          "type": "uint256"
        }
      ],
      "name": "getPassword",
      "outputs": [
        {
          "internalType": "string",
          "name": "",
          "type": "string"
        }
      ],
      "stateMutability": "view",
      "type": "function",
      "constant": true
    },
    {
      "inputs": [
        {
          "internalType": "uint256",
          "name": "i",
          "type": "uint256"
        }
      ],
      "name": "getPhone",
      "outputs": [
        {
          "internalType": "string",
          "name": "",
          "type": "string"
        }
      ],
      "stateMutability": "view",
      "type": "function",
      "constant": true
    },
    {
      "inputs": [
        {
          "internalType": "uint256",
          "name": "i",
          "type": "uint256"
        }
      ],
      "name": "getEmail",
      "outputs": [
        {
          "internalType": "string",
          "name": "",
          "type": "string"
        }
      ],
      "stateMutability": "view",
      "type": "function",
      "constant": true
    },
    {
      "inputs": [
        {
          "internalType": "uint256",
          "name": "i",
          "type": "uint256"
        }
      ],
      "name": "getAddress",
      "outputs": [
        {
          "internalType": "string",
          "name": "",
          "type": "string"
        }
      ],
      "stateMutability": "view",
      "type": "function",
      "constant": true
    },
    {
      "inputs": [
        {
          "internalType": "uint256",
          "name": "i",
          "type": "uint256"
        }
      ],
      "name": "getDescription",
      "outputs": [
        {
          "internalType": "string",
          "name": "",
          "type": "string"
        }
      ],
      "stateMutability": "view",
      "type": "function",
      "constant": true
    },
    {
      "inputs": [
        {
          "internalType": "uint256",
          "name": "i",
          "type": "uint256"
        }
      ],
      "name": "getUserType",
      "outputs": [
        {
          "internalType": "string",
          "name": "",
          "type": "string"
        }
      ],
      "stateMutability": "view",
      "type": "function",
      "constant": true
    },
    {
      "inputs": [
        {
          "internalType": "uint256",
          "name": "i",
          "type": "uint256"
        }
      ],
      "name": "getPatient",
      "outputs": [
        {
          "internalType": "string",
          "name": "",
          "type": "string"
        }
      ],
      "stateMutability": "view",
      "type": "function",
      "constant": true
    },
    {
      "inputs": [
        {
          "internalType": "uint256",
          "name": "i",
          "type": "uint256"
        }
      ],
      "name": "getDoctor",
      "outputs": [
        {
          "internalType": "string",
          "name": "",
          "type": "string"
        }
      ],
      "stateMutability": "view",
      "type": "function",
      "constant": true
    },
    {
      "inputs": [
        {
          "internalType": "uint256",
          "name": "i",
          "type": "uint256"
        }
      ],
      "name": "getDisease",
      "outputs": [
        {
          "internalType": "string",
          "name": "",
          "type": "string"
        }
      ],
      "stateMutability": "view",
      "type": "function",
      "constant": true
    },
    {
      "inputs": [
        {
          "internalType": "uint256",
          "name": "i",
          "type": "uint256"
        }
      ],
      "name": "getReport",
      "outputs": [
        {
          "internalType": "string",
          "name": "",
          "type": "string"
        }
      ],
      "stateMutability": "view",
      "type": "function",
      "constant": true
    },
    {
      "inputs": [
        {
          "internalType": "uint256",
          "name": "i",
          "type": "uint256"
        }
      ],
      "name": "getPrescription",
      "outputs": [
        {
          "internalType": "string",
          "name": "",
          "type": "string"
        }
      ],
      "stateMutability": "view",
      "type": "function",
      "constant": true
    },
    {
      "inputs": [
        {
          "internalType": "uint256",
          "name": "i",
          "type": "uint256"
        }
      ],
      "name": "getEhrDate",
      "outputs": [
        {
          "internalType": "string",
          "name": "",
          "type": "string"
        }
      ],
      "stateMutability": "view",
      "type": "function",
      "constant": true
    }
  ],
  "bytecode": "0x608060405260008055600060025534801561001957600080fd5b50614aa3806100296000396000f3fe608060405234801561001057600080fd5b50600436106101415760003560e01c80637cd7710d116100b8578063b5cb15f71161007c578063b5cb15f7146103da578063b9260a80146103f8578063b93f9b0a1461042d578063bb36bf9d1461045d578063f18d18cc1461048d578063f38c6bb6146104bd57610141565b80637cd7710d1461030a5780637d3a679614610328578063972fe8bc146103585780639b51ebe4146103885780639f4216e8146103a457610141565b806313f58f711161010a57806313f58f71146101ea5780632e7d44b51461021a5780634925ec551461024a5780634e7f9b191461027a57806369b0a72d146102aa5780636f16af10146102da57610141565b8062667c4c1461014657806307973ccf1461016457806307a6af65146101825780630beca10e1461019e5780630e130115146101ce575b600080fd5b61014e6104ed565b60405161015b91906142fa565b60405180910390f35b61016c6104f7565b60405161017991906142fa565b60405180910390f35b61019c6004803603810190610197919061446f565b6104fd565b005b6101b860048036038101906101b391906145d0565b61063f565b6040516101c59190614685565b60405180910390f35b6101e860048036038101906101e391906146a7565b6109dc565b005b61020460048036038101906101ff91906145d0565b610a0b565b6040516102119190614685565b60405180910390f35b610234600480360381019061022f91906145d0565b610e3a565b6040516102419190614685565b60405180910390f35b610264600480360381019061025f91906145d0565b611269565b6040516102719190614685565b60405180910390f35b610294600480360381019061028f91906145d0565b611698565b6040516102a19190614685565b60405180910390f35b6102c460048036038101906102bf91906145d0565b611a35565b6040516102d19190614685565b60405180910390f35b6102f460048036038101906102ef91906145d0565b611dd2565b6040516103019190614685565b60405180910390f35b61031261216f565b60405161031f91906142fa565b60405180910390f35b610342600480360381019061033d91906145d0565b612175565b60405161034f9190614685565b60405180910390f35b610372600480360381019061036d91906145d0565b612512565b60405161037f9190614685565b60405180910390f35b6103a2600480360381019061039d9190614703565b612941565b005b6103be60048036038101906103b991906145d0565b612aa5565b6040516103d19796959493929190614869565b60405180910390f35b6103e2612e9f565b6040516103ef91906142fa565b60405180910390f35b610412600480360381019061040d91906145d0565b612ea8565b60405161042496959493929190614909565b60405180910390f35b610447600480360381019061044291906145d0565b613214565b6040516104549190614685565b60405180910390f35b610477600480360381019061047291906145d0565b613643565b6040516104849190614685565b60405180910390f35b6104a760048036038101906104a291906145d0565b6139e0565b6040516104b49190614685565b60405180910390f35b6104d760048036038101906104d291906145d0565b613e0f565b6040516104e49190614685565b60405180910390f35b6000600254905090565b60005481565b6040518060c0016040528087815260200186815260200185815260200184815260200183815260200182815250600360006002548152602001908152602001600020600082015181600001908051906020019061055b92919061423e565b50602082015181600101908051906020019061057892919061423e565b50604082015181600201908051906020019061059592919061423e565b5060608201518160030190805190602001906105b292919061423e565b5060808201518160040190805190602001906105cf92919061423e565b5060a08201518160050190805190602001906105ec92919061423e565b509050506002547ffc8089ba84edfb52e537a969d5325cf3caecf19fb6e963c7c36d208b0ca49f9b60405160405180910390a260026000815480929190610632906149c3565b9190505550505050505050565b60606000600360008481526020019081526020016000206040518060c001604052908160008201805461067190614a3b565b80601f016020809104026020016040519081016040528092919081815260200182805461069d90614a3b565b80156106ea5780601f106106bf576101008083540402835291602001916106ea565b820191906000526020600020905b8154815290600101906020018083116106cd57829003601f168201915b5050505050815260200160018201805461070390614a3b565b80601f016020809104026020016040519081016040528092919081815260200182805461072f90614a3b565b801561077c5780601f106107515761010080835404028352916020019161077c565b820191906000526020600020905b81548152906001019060200180831161075f57829003601f168201915b5050505050815260200160028201805461079590614a3b565b80601f01602080910402602001604051908101604052809291908181526020018280546107c190614a3b565b801561080e5780601f106107e35761010080835404028352916020019161080e565b820191906000526020600020905b8154815290600101906020018083116107f157829003601f168201915b5050505050815260200160038201805461082790614a3b565b80601f016020809104026020016040519081016040528092919081815260200182805461085390614a3b565b80156108a05780601f10610875576101008083540402835291602001916108a0565b820191906000526020600020905b81548152906001019060200180831161088357829003601f168201915b505050505081526020016004820180546108b990614a3b565b80601f01602080910402602001604051908101604052809291908181526020018280546108e590614a3b565b80156109325780601f1061090757610100808354040283529160200191610932565b820191906000526020600020905b81548152906001019060200180831161091557829003601f168201915b5050505050815260200160058201805461094b90614a3b565b80601f016020809104026020016040519081016040528092919081815260200182805461097790614a3b565b80156109c45780601f10610999576101008083540402835291602001916109c4565b820191906000526020600020905b8154815290600101906020018083116109a757829003601f168201915b50505050508152505090508060400151915050919050565b80600360008481526020019081526020016000206004019080519060200190610a0692919061423e565b505050565b60606000600160008481526020019081526020016000206040518060e0016040529081600082018054610a3d90614a3b565b80601f0160208091040260200160405190810160405280929190818152602001828054610a6990614a3b565b8015610ab65780601f10610a8b57610100808354040283529160200191610ab6565b820191906000526020600020905b815481529060010190602001808311610a9957829003601f168201915b50505050508152602001600182018054610acf90614a3b565b80601f0160208091040260200160405190810160405280929190818152602001828054610afb90614a3b565b8015610b485780601f10610b1d57610100808354040283529160200191610b48565b820191906000526020600020905b815481529060010190602001808311610b2b57829003601f168201915b50505050508152602001600282018054610b6190614a3b565b80601f0160208091040260200160405190810160405280929190818152602001828054610b8d90614a3b565b8015610bda5780601f10610baf57610100808354040283529160200191610bda565b820191906000526020600020905b815481529060010190602001808311610bbd57829003601f168201915b50505050508152602001600382018054610bf390614a3b565b80601f0160208091040260200160405190810160405280929190818152602001828054610c1f90614a3b565b8015610c6c5780601f10610c4157610100808354040283529160200191610c6c565b820191906000526020600020905b815481529060010190602001808311610c4f57829003601f168201915b50505050508152602001600482018054610c8590614a3b565b80601f0160208091040260200160405190810160405280929190818152602001828054610cb190614a3b565b8015610cfe5780601f10610cd357610100808354040283529160200191610cfe565b820191906000526020600020905b815481529060010190602001808311610ce157829003601f168201915b50505050508152602001600582018054610d1790614a3b565b80601f0160208091040260200160405190810160405280929190818152602001828054610d4390614a3b565b8015610d905780601f10610d6557610100808354040283529160200191610d90565b820191906000526020600020905b815481529060010190602001808311610d7357829003601f168201915b50505050508152602001600682018054610da990614a3b565b80601f0160208091040260200160405190810160405280929190818152602001828054610dd590614a3b565b8015610e225780601f10610df757610100808354040283529160200191610e22565b820191906000526020600020905b815481529060010190602001808311610e0557829003601f168201915b50505050508152505090508060c00151915050919050565b60606000600160008481526020019081526020016000206040518060e0016040529081600082018054610e6c90614a3b565b80601f0160208091040260200160405190810160405280929190818152602001828054610e9890614a3b565b8015610ee55780601f10610eba57610100808354040283529160200191610ee5565b820191906000526020600020905b815481529060010190602001808311610ec857829003601f168201915b50505050508152602001600182018054610efe90614a3b565b80601f0160208091040260200160405190810160405280929190818152602001828054610f2a90614a3b565b8015610f775780601f10610f4c57610100808354040283529160200191610f77565b820191906000526020600020905b815481529060010190602001808311610f5a57829003601f168201915b50505050508152602001600282018054610f9090614a3b565b80601f0160208091040260200160405190810160405280929190818152602001828054610fbc90614a3b565b80156110095780601f10610fde57610100808354040283529160200191611009565b820191906000526020600020905b815481529060010190602001808311610fec57829003601f168201915b5050505050815260200160038201805461102290614a3b565b80601f016020809104026020016040519081016040528092919081815260200182805461104e90614a3b565b801561109b5780601f106110705761010080835404028352916020019161109b565b820191906000526020600020905b81548152906001019060200180831161107e57829003601f168201915b505050505081526020016004820180546110b490614a3b565b80601f01602080910402602001604051908101604052809291908181526020018280546110e090614a3b565b801561112d5780601f106111025761010080835404028352916020019161112d565b820191906000526020600020905b81548152906001019060200180831161111057829003601f168201915b5050505050815260200160058201805461114690614a3b565b80601f016020809104026020016040519081016040528092919081815260200182805461117290614a3b565b80156111bf5780601f10611194576101008083540402835291602001916111bf565b820191906000526020600020905b8154815290600101906020018083116111a257829003601f168201915b505050505081526020016006820180546111d890614a3b565b80601f016020809104026020016040519081016040528092919081815260200182805461120490614a3b565b80156112515780601f1061122657610100808354040283529160200191611251565b820191906000526020600020905b81548152906001019060200180831161123457829003601f168201915b50505050508152505090508060400151915050919050565b60606000600160008481526020019081526020016000206040518060e001604052908160008201805461129b90614a3b565b80601f01602080910402602001604051908101604052809291908181526020018280546112c790614a3b565b80156113145780601f106112e957610100808354040283529160200191611314565b820191906000526020600020905b8154815290600101906020018083116112f757829003601f168201915b5050505050815260200160018201805461132d90614a3b565b80601f016020809104026020016040519081016040528092919081815260200182805461135990614a3b565b80156113a65780601f1061137b576101008083540402835291602001916113a6565b820191906000526020600020905b81548152906001019060200180831161138957829003601f168201915b505050505081526020016002820180546113bf90614a3b565b80601f01602080910402602001604051908101604052809291908181526020018280546113eb90614a3b565b80156114385780601f1061140d57610100808354040283529160200191611438565b820191906000526020600020905b81548152906001019060200180831161141b57829003601f168201915b5050505050815260200160038201805461145190614a3b565b80601f016020809104026020016040519081016040528092919081815260200182805461147d90614a3b565b80156114ca5780601f1061149f576101008083540402835291602001916114ca565b820191906000526020600020905b8154815290600101906020018083116114ad57829003601f168201915b505050505081526020016004820180546114e390614a3b565b80601f016020809104026020016040519081016040528092919081815260200182805461150f90614a3b565b801561155c5780601f106115315761010080835404028352916020019161155c565b820191906000526020600020905b81548152906001019060200180831161153f57829003601f168201915b5050505050815260200160058201805461157590614a3b565b80601f01602080910402602001604051908101604052809291908181526020018280546115a190614a3b565b80156115ee5780601f106115c3576101008083540402835291602001916115ee565b820191906000526020600020905b8154815290600101906020018083116115d157829003601f168201915b5050505050815260200160068201805461160790614a3b565b80601f016020809104026020016040519081016040528092919081815260200182805461163390614a3b565b80156116805780601f1061165557610100808354040283529160200191611680565b820191906000526020600020905b81548152906001019060200180831161166357829003601f168201915b50505050508152505090508060a00151915050919050565b60606000600360008481526020019081526020016000206040518060c00160405290816000820180546116ca90614a3b565b80601f01602080910402602001604051908101604052809291908181526020018280546116f690614a3b565b80156117435780601f1061171857610100808354040283529160200191611743565b820191906000526020600020905b81548152906001019060200180831161172657829003601f168201915b5050505050815260200160018201805461175c90614a3b565b80601f016020809104026020016040519081016040528092919081815260200182805461178890614a3b565b80156117d55780601f106117aa576101008083540402835291602001916117d5565b820191906000526020600020905b8154815290600101906020018083116117b857829003601f168201915b505050505081526020016002820180546117ee90614a3b565b80601f016020809104026020016040519081016040528092919081815260200182805461181a90614a3b565b80156118675780601f1061183c57610100808354040283529160200191611867565b820191906000526020600020905b81548152906001019060200180831161184a57829003601f168201915b5050505050815260200160038201805461188090614a3b565b80601f01602080910402602001604051908101604052809291908181526020018280546118ac90614a3b565b80156118f95780601f106118ce576101008083540402835291602001916118f9565b820191906000526020600020905b8154815290600101906020018083116118dc57829003601f168201915b5050505050815260200160048201805461191290614a3b565b80601f016020809104026020016040519081016040528092919081815260200182805461193e90614a3b565b801561198b5780601f106119605761010080835404028352916020019161198b565b820191906000526020600020905b81548152906001019060200180831161196e57829003601f168201915b505050505081526020016005820180546119a490614a3b565b80601f01602080910402602001604051908101604052809291908181526020018280546119d090614a3b565b8015611a1d5780601f106119f257610100808354040283529160200191611a1d565b820191906000526020600020905b815481529060010190602001808311611a0057829003601f168201915b50505050508152505090508060600151915050919050565b60606000600360008481526020019081526020016000206040518060c0016040529081600082018054611a6790614a3b565b80601f0160208091040260200160405190810160405280929190818152602001828054611a9390614a3b565b8015611ae05780601f10611ab557610100808354040283529160200191611ae0565b820191906000526020600020905b815481529060010190602001808311611ac357829003601f168201915b50505050508152602001600182018054611af990614a3b565b80601f0160208091040260200160405190810160405280929190818152602001828054611b2590614a3b565b8015611b725780601f10611b4757610100808354040283529160200191611b72565b820191906000526020600020905b815481529060010190602001808311611b5557829003601f168201915b50505050508152602001600282018054611b8b90614a3b565b80601f0160208091040260200160405190810160405280929190818152602001828054611bb790614a3b565b8015611c045780601f10611bd957610100808354040283529160200191611c04565b820191906000526020600020905b815481529060010190602001808311611be757829003601f168201915b50505050508152602001600382018054611c1d90614a3b565b80601f0160208091040260200160405190810160405280929190818152602001828054611c4990614a3b565b8015611c965780601f10611c6b57610100808354040283529160200191611c96565b820191906000526020600020905b815481529060010190602001808311611c7957829003601f168201915b50505050508152602001600482018054611caf90614a3b565b80601f0160208091040260200160405190810160405280929190818152602001828054611cdb90614a3b565b8015611d285780601f10611cfd57610100808354040283529160200191611d28565b820191906000526020600020905b815481529060010190602001808311611d0b57829003601f168201915b50505050508152602001600582018054611d4190614a3b565b80601f0160208091040260200160405190810160405280929190818152602001828054611d6d90614a3b565b8015611dba5780601f10611d8f57610100808354040283529160200191611dba565b820191906000526020600020905b815481529060010190602001808311611d9d57829003601f168201915b50505050508152505090508060200151915050919050565b60606000600360008481526020019081526020016000206040518060c0016040529081600082018054611e0490614a3b565b80601f0160208091040260200160405190810160405280929190818152602001828054611e3090614a3b565b8015611e7d5780601f10611e5257610100808354040283529160200191611e7d565b820191906000526020600020905b815481529060010190602001808311611e6057829003601f168201915b50505050508152602001600182018054611e9690614a3b565b80601f0160208091040260200160405190810160405280929190818152602001828054611ec290614a3b565b8015611f0f5780601f10611ee457610100808354040283529160200191611f0f565b820191906000526020600020905b815481529060010190602001808311611ef257829003601f168201915b50505050508152602001600282018054611f2890614a3b565b80601f0160208091040260200160405190810160405280929190818152602001828054611f5490614a3b565b8015611fa15780601f10611f7657610100808354040283529160200191611fa1565b820191906000526020600020905b815481529060010190602001808311611f8457829003601f168201915b50505050508152602001600382018054611fba90614a3b565b80601f0160208091040260200160405190810160405280929190818152602001828054611fe690614a3b565b80156120335780601f1061200857610100808354040283529160200191612033565b820191906000526020600020905b81548152906001019060200180831161201657829003601f168201915b5050505050815260200160048201805461204c90614a3b565b80601f016020809104026020016040519081016040528092919081815260200182805461207890614a3b565b80156120c55780601f1061209a576101008083540402835291602001916120c5565b820191906000526020600020905b8154815290600101906020018083116120a857829003601f168201915b505050505081526020016005820180546120de90614a3b565b80601f016020809104026020016040519081016040528092919081815260200182805461210a90614a3b565b80156121575780601f1061212c57610100808354040283529160200191612157565b820191906000526020600020905b81548152906001019060200180831161213a57829003601f168201915b50505050508152505090508060800151915050919050565b60025481565b60606000600360008481526020019081526020016000206040518060c00160405290816000820180546121a790614a3b565b80601f01602080910402602001604051908101604052809291908181526020018280546121d390614a3b565b80156122205780601f106121f557610100808354040283529160200191612220565b820191906000526020600020905b81548152906001019060200180831161220357829003601f168201915b5050505050815260200160018201805461223990614a3b565b80601f016020809104026020016040519081016040528092919081815260200182805461226590614a3b565b80156122b25780601f10612287576101008083540402835291602001916122b2565b820191906000526020600020905b81548152906001019060200180831161229557829003601f168201915b505050505081526020016002820180546122cb90614a3b565b80601f01602080910402602001604051908101604052809291908181526020018280546122f790614a3b565b80156123445780601f1061231957610100808354040283529160200191612344565b820191906000526020600020905b81548152906001019060200180831161232757829003601f168201915b5050505050815260200160038201805461235d90614a3b565b80601f016020809104026020016040519081016040528092919081815260200182805461238990614a3b565b80156123d65780601f106123ab576101008083540402835291602001916123d6565b820191906000526020600020905b8154815290600101906020018083116123b957829003601f168201915b505050505081526020016004820180546123ef90614a3b565b80601f016020809104026020016040519081016040528092919081815260200182805461241b90614a3b565b80156124685780601f1061243d57610100808354040283529160200191612468565b820191906000526020600020905b81548152906001019060200180831161244b57829003601f168201915b5050505050815260200160058201805461248190614a3b565b80601f01602080910402602001604051908101604052809291908181526020018280546124ad90614a3b565b80156124fa5780601f106124cf576101008083540402835291602001916124fa565b820191906000526020600020905b8154815290600101906020018083116124dd57829003601f168201915b50505050508152505090508060000151915050919050565b60606000600160008481526020019081526020016000206040518060e001604052908160008201805461254490614a3b565b80601f016020809104026020016040519081016040528092919081815260200182805461257090614a3b565b80156125bd5780601f10612592576101008083540402835291602001916125bd565b820191906000526020600020905b8154815290600101906020018083116125a057829003601f168201915b505050505081526020016001820180546125d690614a3b565b80601f016020809104026020016040519081016040528092919081815260200182805461260290614a3b565b801561264f5780601f106126245761010080835404028352916020019161264f565b820191906000526020600020905b81548152906001019060200180831161263257829003601f168201915b5050505050815260200160028201805461266890614a3b565b80601f016020809104026020016040519081016040528092919081815260200182805461269490614a3b565b80156126e15780601f106126b6576101008083540402835291602001916126e1565b820191906000526020600020905b8154815290600101906020018083116126c457829003601f168201915b505050505081526020016003820180546126fa90614a3b565b80601f016020809104026020016040519081016040528092919081815260200182805461272690614a3b565b80156127735780601f1061274857610100808354040283529160200191612773565b820191906000526020600020905b81548152906001019060200180831161275657829003601f168201915b5050505050815260200160048201805461278c90614a3b565b80601f01602080910402602001604051908101604052809291908181526020018280546127b890614a3b565b80156128055780601f106127da57610100808354040283529160200191612805565b820191906000526020600020905b8154815290600101906020018083116127e857829003601f168201915b5050505050815260200160058201805461281e90614a3b565b80601f016020809104026020016040519081016040528092919081815260200182805461284a90614a3b565b80156128975780601f1061286c57610100808354040283529160200191612897565b820191906000526020600020905b81548152906001019060200180831161287a57829003601f168201915b505050505081526020016006820180546128b090614a3b565b80601f01602080910402602001604051908101604052809291908181526020018280546128dc90614a3b565b80156129295780601f106128fe57610100808354040283529160200191612929565b820191906000526020600020905b81548152906001019060200180831161290c57829003601f168201915b50505050508152505090508060600151915050919050565b6040518060e0016040528088815260200187815260200186815260200185815260200184815260200183815260200182815250600160008054815260200190815260200160002060008201518160000190805190602001906129a492919061423e565b5060208201518160010190805190602001906129c192919061423e565b5060408201518160020190805190602001906129de92919061423e565b5060608201518160030190805190602001906129fb92919061423e565b506080820151816004019080519060200190612a1892919061423e565b5060a0820151816005019080519060200190612a3592919061423e565b5060c0820151816006019080519060200190612a5292919061423e565b509050506000547f1ed675bb725b3a8b0434b9ee956fe05e4c0e79f9dc67c3f1a717a5bb1fd88fd360405160405180910390a2600080815480929190612a97906149c3565b919050555050505050505050565b6001602052806000526040600020600091509050806000018054612ac890614a3b565b80601f0160208091040260200160405190810160405280929190818152602001828054612af490614a3b565b8015612b415780601f10612b1657610100808354040283529160200191612b41565b820191906000526020600020905b815481529060010190602001808311612b2457829003601f168201915b505050505090806001018054612b5690614a3b565b80601f0160208091040260200160405190810160405280929190818152602001828054612b8290614a3b565b8015612bcf5780601f10612ba457610100808354040283529160200191612bcf565b820191906000526020600020905b815481529060010190602001808311612bb257829003601f168201915b505050505090806002018054612be490614a3b565b80601f0160208091040260200160405190810160405280929190818152602001828054612c1090614a3b565b8015612c5d5780601f10612c3257610100808354040283529160200191612c5d565b820191906000526020600020905b815481529060010190602001808311612c4057829003601f168201915b505050505090806003018054612c7290614a3b565b80601f0160208091040260200160405190810160405280929190818152602001828054612c9e90614a3b565b8015612ceb5780601f10612cc057610100808354040283529160200191612ceb565b820191906000526020600020905b815481529060010190602001808311612cce57829003601f168201915b505050505090806004018054612d0090614a3b565b80601f0160208091040260200160405190810160405280929190818152602001828054612d2c90614a3b565b8015612d795780601f10612d4e57610100808354040283529160200191612d79565b820191906000526020600020905b815481529060010190602001808311612d5c57829003601f168201915b505050505090806005018054612d8e90614a3b565b80601f0160208091040260200160405190810160405280929190818152602001828054612dba90614a3b565b8015612e075780601f10612ddc57610100808354040283529160200191612e07565b820191906000526020600020905b815481529060010190602001808311612dea57829003601f168201915b505050505090806006018054612e1c90614a3b565b80601f0160208091040260200160405190810160405280929190818152602001828054612e4890614a3b565b8015612e955780601f10612e6a57610100808354040283529160200191612e95565b820191906000526020600020905b815481529060010190602001808311612e7857829003601f168201915b5050505050905087565b60008054905090565b6003602052806000526040600020600091509050806000018054612ecb90614a3b565b80601f0160208091040260200160405190810160405280929190818152602001828054612ef790614a3b565b8015612f445780601f10612f1957610100808354040283529160200191612f44565b820191906000526020600020905b815481529060010190602001808311612f2757829003601f168201915b505050505090806001018054612f5990614a3b565b80601f0160208091040260200160405190810160405280929190818152602001828054612f8590614a3b565b8015612fd25780601f10612fa757610100808354040283529160200191612fd2565b820191906000526020600020905b815481529060010190602001808311612fb557829003601f168201915b505050505090806002018054612fe790614a3b565b80601f016020809104026020016040519081016040528092919081815260200182805461301390614a3b565b80156130605780601f1061303557610100808354040283529160200191613060565b820191906000526020600020905b81548152906001019060200180831161304357829003601f168201915b50505050509080600301805461307590614a3b565b80601f01602080910402602001604051908101604052809291908181526020018280546130a190614a3b565b80156130ee5780601f106130c3576101008083540402835291602001916130ee565b820191906000526020600020905b8154815290600101906020018083116130d157829003601f168201915b50505050509080600401805461310390614a3b565b80601f016020809104026020016040519081016040528092919081815260200182805461312f90614a3b565b801561317c5780601f106131515761010080835404028352916020019161317c565b820191906000526020600020905b81548152906001019060200180831161315f57829003601f168201915b50505050509080600501805461319190614a3b565b80601f01602080910402602001604051908101604052809291908181526020018280546131bd90614a3b565b801561320a5780601f106131df5761010080835404028352916020019161320a565b820191906000526020600020905b8154815290600101906020018083116131ed57829003601f168201915b5050505050905086565b60606000600160008481526020019081526020016000206040518060e001604052908160008201805461324690614a3b565b80601f016020809104026020016040519081016040528092919081815260200182805461327290614a3b565b80156132bf5780601f10613294576101008083540402835291602001916132bf565b820191906000526020600020905b8154815290600101906020018083116132a257829003601f168201915b505050505081526020016001820180546132d890614a3b565b80601f016020809104026020016040519081016040528092919081815260200182805461330490614a3b565b80156133515780601f1061332657610100808354040283529160200191613351565b820191906000526020600020905b81548152906001019060200180831161333457829003601f168201915b5050505050815260200160028201805461336a90614a3b565b80601f016020809104026020016040519081016040528092919081815260200182805461339690614a3b565b80156133e35780601f106133b8576101008083540402835291602001916133e3565b820191906000526020600020905b8154815290600101906020018083116133c657829003601f168201915b505050505081526020016003820180546133fc90614a3b565b80601f016020809104026020016040519081016040528092919081815260200182805461342890614a3b565b80156134755780601f1061344a57610100808354040283529160200191613475565b820191906000526020600020905b81548152906001019060200180831161345857829003601f168201915b5050505050815260200160048201805461348e90614a3b565b80601f01602080910402602001604051908101604052809291908181526020018280546134ba90614a3b565b80156135075780601f106134dc57610100808354040283529160200191613507565b820191906000526020600020905b8154815290600101906020018083116134ea57829003601f168201915b5050505050815260200160058201805461352090614a3b565b80601f016020809104026020016040519081016040528092919081815260200182805461354c90614a3b565b80156135995780601f1061356e57610100808354040283529160200191613599565b820191906000526020600020905b81548152906001019060200180831161357c57829003601f168201915b505050505081526020016006820180546135b290614a3b565b80601f01602080910402602001604051908101604052809291908181526020018280546135de90614a3b565b801561362b5780601f106136005761010080835404028352916020019161362b565b820191906000526020600020905b81548152906001019060200180831161360e57829003601f168201915b50505050508152505090508060800151915050919050565b60606000600360008481526020019081526020016000206040518060c001604052908160008201805461367590614a3b565b80601f01602080910402602001604051908101604052809291908181526020018280546136a190614a3b565b80156136ee5780601f106136c3576101008083540402835291602001916136ee565b820191906000526020600020905b8154815290600101906020018083116136d157829003601f168201915b5050505050815260200160018201805461370790614a3b565b80601f016020809104026020016040519081016040528092919081815260200182805461373390614a3b565b80156137805780601f1061375557610100808354040283529160200191613780565b820191906000526020600020905b81548152906001019060200180831161376357829003601f168201915b5050505050815260200160028201805461379990614a3b565b80601f01602080910402602001604051908101604052809291908181526020018280546137c590614a3b565b80156138125780601f106137e757610100808354040283529160200191613812565b820191906000526020600020905b8154815290600101906020018083116137f557829003601f168201915b5050505050815260200160038201805461382b90614a3b565b80601f016020809104026020016040519081016040528092919081815260200182805461385790614a3b565b80156138a45780601f10613879576101008083540402835291602001916138a4565b820191906000526020600020905b81548152906001019060200180831161388757829003601f168201915b505050505081526020016004820180546138bd90614a3b565b80601f01602080910402602001604051908101604052809291908181526020018280546138e990614a3b565b80156139365780601f1061390b57610100808354040283529160200191613936565b820191906000526020600020905b81548152906001019060200180831161391957829003601f168201915b5050505050815260200160058201805461394f90614a3b565b80601f016020809104026020016040519081016040528092919081815260200182805461397b90614a3b565b80156139c85780601f1061399d576101008083540402835291602001916139c8565b820191906000526020600020905b8154815290600101906020018083116139ab57829003601f168201915b50505050508152505090508060a00151915050919050565b60606000600160008481526020019081526020016000206040518060e0016040529081600082018054613a1290614a3b565b80601f0160208091040260200160405190810160405280929190818152602001828054613a3e90614a3b565b8015613a8b5780601f10613a6057610100808354040283529160200191613a8b565b820191906000526020600020905b815481529060010190602001808311613a6e57829003601f168201915b50505050508152602001600182018054613aa490614a3b565b80601f0160208091040260200160405190810160405280929190818152602001828054613ad090614a3b565b8015613b1d5780601f10613af257610100808354040283529160200191613b1d565b820191906000526020600020905b815481529060010190602001808311613b0057829003601f168201915b50505050508152602001600282018054613b3690614a3b565b80601f0160208091040260200160405190810160405280929190818152602001828054613b6290614a3b565b8015613baf5780601f10613b8457610100808354040283529160200191613baf565b820191906000526020600020905b815481529060010190602001808311613b9257829003601f168201915b50505050508152602001600382018054613bc890614a3b565b80601f0160208091040260200160405190810160405280929190818152602001828054613bf490614a3b565b8015613c415780601f10613c1657610100808354040283529160200191613c41565b820191906000526020600020905b815481529060010190602001808311613c2457829003601f168201915b50505050508152602001600482018054613c5a90614a3b565b80601f0160208091040260200160405190810160405280929190818152602001828054613c8690614a3b565b8015613cd35780601f10613ca857610100808354040283529160200191613cd3565b820191906000526020600020905b815481529060010190602001808311613cb657829003601f168201915b50505050508152602001600582018054613cec90614a3b565b80601f0160208091040260200160405190810160405280929190818152602001828054613d1890614a3b565b8015613d655780601f10613d3a57610100808354040283529160200191613d65565b820191906000526020600020905b815481529060010190602001808311613d4857829003601f168201915b50505050508152602001600682018054613d7e90614a3b565b80601f0160208091040260200160405190810160405280929190818152602001828054613daa90614a3b565b8015613df75780601f10613dcc57610100808354040283529160200191613df7565b820191906000526020600020905b815481529060010190602001808311613dda57829003601f168201915b50505050508152505090508060000151915050919050565b60606000600160008481526020019081526020016000206040518060e0016040529081600082018054613e4190614a3b565b80601f0160208091040260200160405190810160405280929190818152602001828054613e6d90614a3b565b8015613eba5780601f10613e8f57610100808354040283529160200191613eba565b820191906000526020600020905b815481529060010190602001808311613e9d57829003601f168201915b50505050508152602001600182018054613ed390614a3b565b80601f0160208091040260200160405190810160405280929190818152602001828054613eff90614a3b565b8015613f4c5780601f10613f2157610100808354040283529160200191613f4c565b820191906000526020600020905b815481529060010190602001808311613f2f57829003601f168201915b50505050508152602001600282018054613f6590614a3b565b80601f0160208091040260200160405190810160405280929190818152602001828054613f9190614a3b565b8015613fde5780601f10613fb357610100808354040283529160200191613fde565b820191906000526020600020905b815481529060010190602001808311613fc157829003601f168201915b50505050508152602001600382018054613ff790614a3b565b80601f016020809104026020016040519081016040528092919081815260200182805461402390614a3b565b80156140705780601f1061404557610100808354040283529160200191614070565b820191906000526020600020905b81548152906001019060200180831161405357829003601f168201915b5050505050815260200160048201805461408990614a3b565b80601f01602080910402602001604051908101604052809291908181526020018280546140b590614a3b565b80156141025780601f106140d757610100808354040283529160200191614102565b820191906000526020600020905b8154815290600101906020018083116140e557829003601f168201915b5050505050815260200160058201805461411b90614a3b565b80601f016020809104026020016040519081016040528092919081815260200182805461414790614a3b565b80156141945780601f1061416957610100808354040283529160200191614194565b820191906000526020600020905b81548152906001019060200180831161417757829003601f168201915b505050505081526020016006820180546141ad90614a3b565b80601f01602080910402602001604051908101604052809291908181526020018280546141d990614a3b565b80156142265780601f106141fb57610100808354040283529160200191614226565b820191906000526020600020905b81548152906001019060200180831161420957829003601f168201915b50505050508152505090508060200151915050919050565b82805461424a90614a3b565b90600052602060002090601f01602090048101928261426c57600085556142b3565b82601f1061428557805160ff19168380011785556142b3565b828001600101855582156142b3579182015b828111156142b2578251825591602001919060010190614297565b5b5090506142c091906142c4565b5090565b5b808211156142dd5760008160009055506001016142c5565b5090565b6000819050919050565b6142f4816142e1565b82525050565b600060208201905061430f60008301846142eb565b92915050565b6000604051905090565b600080fd5b600080fd5b600080fd5b600080fd5b6000601f19601f8301169050919050565b7f4e487b7100000000000000000000000000000000000000000000000000000000600052604160045260246000fd5b61437c82614333565b810181811067ffffffffffffffff8211171561439b5761439a614344565b5b80604052505050565b60006143ae614315565b90506143ba8282614373565b919050565b600067ffffffffffffffff8211156143da576143d9614344565b5b6143e382614333565b9050602081019050919050565b82818337600083830152505050565b600061441261440d846143bf565b6143a4565b90508281526020810184848401111561442e5761442d61432e565b5b6144398482856143f0565b509392505050565b600082601f83011261445657614455614329565b5b81356144668482602086016143ff565b91505092915050565b60008060008060008060c0878903121561448c5761448b61431f565b5b600087013567ffffffffffffffff8111156144aa576144a9614324565b5b6144b689828a01614441565b965050602087013567ffffffffffffffff8111156144d7576144d6614324565b5b6144e389828a01614441565b955050604087013567ffffffffffffffff81111561450457614503614324565b5b61451089828a01614441565b945050606087013567ffffffffffffffff81111561453157614530614324565b5b61453d89828a01614441565b935050608087013567ffffffffffffffff81111561455e5761455d614324565b5b61456a89828a01614441565b92505060a087013567ffffffffffffffff81111561458b5761458a614324565b5b61459789828a01614441565b9150509295509295509295565b6145ad816142e1565b81146145b857600080fd5b50565b6000813590506145ca816145a4565b92915050565b6000602082840312156145e6576145e561431f565b5b60006145f4848285016145bb565b91505092915050565b600081519050919050565b600082825260208201905092915050565b60005b8381101561463757808201518184015260208101905061461c565b83811115614646576000848401525b50505050565b6000614657826145fd565b6146618185614608565b9350614671818560208601614619565b61467a81614333565b840191505092915050565b6000602082019050818103600083015261469f818461464c565b905092915050565b600080604083850312156146be576146bd61431f565b5b60006146cc858286016145bb565b925050602083013567ffffffffffffffff8111156146ed576146ec614324565b5b6146f985828601614441565b9150509250929050565b600080600080600080600060e0888a0312156147225761472161431f565b5b600088013567ffffffffffffffff8111156147405761473f614324565b5b61474c8a828b01614441565b975050602088013567ffffffffffffffff81111561476d5761476c614324565b5b6147798a828b01614441565b965050604088013567ffffffffffffffff81111561479a57614799614324565b5b6147a68a828b01614441565b955050606088013567ffffffffffffffff8111156147c7576147c6614324565b5b6147d38a828b01614441565b945050608088013567ffffffffffffffff8111156147f4576147f3614324565b5b6148008a828b01614441565b93505060a088013567ffffffffffffffff81111561482157614820614324565b5b61482d8a828b01614441565b92505060c088013567ffffffffffffffff81111561484e5761484d614324565b5b61485a8a828b01614441565b91505092959891949750929550565b600060e0820190508181036000830152614883818a61464c565b90508181036020830152614897818961464c565b905081810360408301526148ab818861464c565b905081810360608301526148bf818761464c565b905081810360808301526148d3818661464c565b905081810360a08301526148e7818561464c565b905081810360c08301526148fb818461464c565b905098975050505050505050565b600060c0820190508181036000830152614923818961464c565b90508181036020830152614937818861464c565b9050818103604083015261494b818761464c565b9050818103606083015261495f818661464c565b90508181036080830152614973818561464c565b905081810360a0830152614987818461464c565b9050979650505050505050565b7f4e487b7100000000000000000000000000000000000000000000000000000000600052601160045260246000fd5b60006149ce826142e1565b91507fffffffffffffffffffffffffffffffffffffffffffffffffffffffffffffffff821415614a0157614a00614994565b5b600182019050919050565b7f4e487b7100000000000000000000000000000000000000000000000000000000600052602260045260246000fd5b60006002820490506001821680614a5357607f821691505b60208210811415614a6757614a66614a0c565b5b5091905056fea264697066735822122007b930affe08bf586139b896eb8a86c7268aed2eb0c42b181641fe2cd6f2cb4c64736f6c634300080b0033",
  "immutableReferences": {},
  "source": "pragma solidity >= 0.8.11 <= 0.8.11;\r\npragma experimental ABIEncoderV2;\r\n//evault solidity code\r\ncontract Healthcare {\r\n\r\n    uint public userCount = 0; \r\n    mapping(uint => user) public userList; \r\n     struct user\r\n     {\r\n       string username;\r\n       string password;\r\n       string phone;\r\n       string email;\r\n       string home_address;\r\n       string desc;\r\n       string usertype;\r\n     }\r\n \r\n   // events \r\n   event userCreated(uint indexed _userId);\r\n   \r\n   //function  to save user details to Blockchain\r\n   function saveUser(string memory uname, string memory pass, string memory phone, string memory emailid, string memory homes_address, string memory desc, string memory utype) public {\r\n      userList[userCount] = user(uname, pass, phone, emailid, homes_address, desc, utype);\r\n      emit userCreated(userCount);\r\n      userCount++;\r\n    }\r\n\r\n     //get user count\r\n    function getUserCount()  public view returns (uint) {\r\n          return  userCount;\r\n    }\r\n\r\n    uint public ehrCount = 0; \r\n    mapping(uint => ehr) public ehrList; \r\n     struct ehr\r\n     {\r\n       string username;\r\n       string doctorname;\r\n       string disease_details;\r\n       string report;\r\n       string prescription;\r\n       string ehr_date;       \r\n     }\r\n \r\n   // events \r\n   event ehrCreated(uint indexed _ehrId);\r\n   \r\n   //function  to save EHR details to Blockchain\r\n   function saveEhr(string memory uname, string memory doctor, string memory disease, string memory report, string memory pres, string memory edate) public {\r\n      ehrList[ehrCount] = ehr(uname, doctor, disease, report, pres, edate);\r\n      emit ehrCreated(ehrCount);\r\n      ehrCount++;\r\n    }\r\n\r\n    function updatePrescription(uint i, string memory pres) public { \r\n      ehrList[i].prescription = pres;\r\n   }\r\n\r\n     //get ehr count\r\n    function getEhrCount()  public view returns (uint) {\r\n          return  ehrCount;\r\n    }\r\n\r\n    function getUsername(uint i) public view returns (string memory) {\r\n        user memory doc = userList[i];\r\n\treturn doc.username;\r\n    }\r\n\r\n    function getPassword(uint i) public view returns (string memory) {\r\n        user memory doc = userList[i];\r\n\treturn doc.password;\r\n    }\r\n\r\n    function getPhone(uint i) public view returns (string memory) {\r\n        user memory doc = userList[i];\r\n\treturn doc.phone;\r\n    }\r\n\r\n   \r\n    function getEmail(uint i) public view returns (string memory) {\r\n        user memory doc = userList[i];\r\n\treturn doc.email;\r\n    }\r\n\r\n    function getAddress(uint i) public view returns (string memory) {\r\n        user memory doc = userList[i];\r\n\treturn doc.home_address;\r\n    }\r\n\r\n    function getDescription(uint i) public view returns (string memory) {\r\n        user memory doc = userList[i];\r\n\treturn doc.desc;\r\n    }\r\n\r\n    function getUserType(uint i) public view returns (string memory) {\r\n        user memory doc = userList[i];\r\n\treturn doc.usertype;\r\n    }\r\n\r\n    function getPatient(uint i) public view returns (string memory) {\r\n        ehr memory doc = ehrList[i];\r\n\treturn doc.username;\r\n    }\r\n\r\n    function getDoctor(uint i) public view returns (string memory) {\r\n        ehr memory doc = ehrList[i];\r\n\treturn doc.doctorname;\r\n    }\r\n\r\n    function getDisease(uint i) public view returns (string memory) {\r\n        ehr memory doc = ehrList[i];\r\n\treturn doc.disease_details;\r\n    }\r\n\r\n    function getReport(uint i) public view returns (string memory) {\r\n        ehr memory doc = ehrList[i];\r\n\treturn doc.report;\r\n    }\r\n\r\n    function getPrescription(uint i) public view returns (string memory) {\r\n        ehr memory doc = ehrList[i];\r\n\treturn doc.prescription;\r\n    }\r\n\r\n    function getEhrDate(uint i) public view returns (string memory) {\r\n        ehr memory doc = ehrList[i];\r\n\treturn doc.ehr_date;\r\n    }    \r\n}",
  "sourcePath": "C:\\Users\\srini\\OneDrive\\Desktop\\MAJOR PROJECT\\hello-eth\\node_modules\\.bin\\contracts\\Healthcare.sol",
  "compiler": {
    "name": "solc",
    "version": "0.8.11+commit.d7f03943.Emscripten.clang"
  },
  "schemaVersion": "3.4.4",
  "updatedAt": "2025-07-22T09:54:45.179Z",
  "networkType": "ethereum",
  "devdoc": {
    "kind": "dev",
    "methods": {},
    "version": 1
  },
  "userdoc": {
    "kind": "user",
    "methods": {},
    "version": 1
  }
}